{
  "_format": "hh-sol-artifact-1",
  "contractName": "CorePayroll",
  "sourceName": "contracts/CorePayroll.sol",
  "abi": [
    {
      "inputs": [
        {
          "internalType": "address",
          "name": "_taxVault",
          "type": "address"
        }
      ],
      "stateMutability": "nonpayable",
      "type": "constructor"
    },
    {
      "anonymous": false,
      "inputs": [
        {
          "indexed": false,
          "internalType": "uint256",
          "name": "amountRecovered",
          "type": "uint256"
        }
      ],
      "name": "EmergencyWithdrawal",
      "type": "event"
    },
    {
      "anonymous": false,
      "inputs": [
        {
          "indexed": true,
          "internalType": "address",
          "name": "previousEmployer",
          "type": "address"
        },
        {
          "indexed": true,
          "internalType": "address",
          "name": "newEmployer",
          "type": "address"
        }
      ],
      "name": "EmployerUpdated",
      "type": "event"
    },
    {
      "anonymous": false,
      "inputs": [
        {
          "indexed": true,
          "internalType": "address",
          "name": "employee",
          "type": "address"
        },
        {
          "indexed": false,
          "internalType": "uint256",
          "name": "accruedBalance",
          "type": "uint256"
        }
      ],
      "name": "StreamCancelled",
      "type": "event"
    },
    {
      "anonymous": false,
      "inputs": [
        {
          "indexed": true,
          "internalType": "address",
          "name": "employee",
          "type": "address"
        },
        {
          "indexed": false,
          "internalType": "uint256",
          "name": "accruedBalance",
          "type": "uint256"
        }
      ],
      "name": "StreamPaused",
      "type": "event"
    },
    {
      "anonymous": false,
      "inputs": [
        {
          "indexed": true,
          "internalType": "address",
          "name": "employee",
          "type": "address"
        },
        {
          "indexed": false,
          "internalType": "uint256",
          "name": "rate",
          "type": "uint256"
        }
      ],
      "name": "StreamStarted",
      "type": "event"
    },
    {
      "anonymous": false,
      "inputs": [
        {
          "indexed": false,
          "internalType": "uint256",
          "name": "amount",
          "type": "uint256"
        }
      ],
      "name": "TreasuryFunded",
      "type": "event"
    },
    {
      "anonymous": false,
      "inputs": [
        {
          "indexed": true,
          "internalType": "address",
          "name": "employee",
          "type": "address"
        },
        {
          "indexed": false,
          "internalType": "uint256",
          "name": "netAmount",
          "type": "uint256"
        },
        {
          "indexed": false,
          "internalType": "uint256",
          "name": "taxAmount",
          "type": "uint256"
        }
      ],
      "name": "Withdrawal",
      "type": "event"
    },
    {
      "inputs": [],
      "name": "TAX_RATE",
      "outputs": [
        {
          "internalType": "uint256",
          "name": "",
          "type": "uint256"
        }
      ],
      "stateMutability": "view",
      "type": "function"
    },
    {
      "inputs": [],
      "name": "admin",
      "outputs": [
        {
          "internalType": "address",
          "name": "",
          "type": "address"
        }
      ],
      "stateMutability": "view",
      "type": "function"
    },
    {
      "inputs": [
        {
          "internalType": "address",
          "name": "_employee",
          "type": "address"
        }
      ],
      "name": "cancelStream",
      "outputs": [],
      "stateMutability": "nonpayable",
      "type": "function"
    },
    {
      "inputs": [
        {
          "internalType": "address",
          "name": "_employee",
          "type": "address"
        }
      ],
      "name": "claimableAmount",
      "outputs": [
        {
          "internalType": "uint256",
          "name": "",
          "type": "uint256"
        }
      ],
      "stateMutability": "view",
      "type": "function"
    },
    {
      "inputs": [],
      "name": "emergencyWithdraw",
      "outputs": [],
      "stateMutability": "nonpayable",
      "type": "function"
    },
    {
      "inputs": [],
      "name": "employer",
      "outputs": [
        {
          "internalType": "address",
          "name": "",
          "type": "address"
        }
      ],
      "stateMutability": "view",
      "type": "function"
    },
    {
      "inputs": [],
      "name": "getTreasuryBalance",
      "outputs": [
        {
          "internalType": "uint256",
          "name": "",
          "type": "uint256"
        }
      ],
      "stateMutability": "view",
      "type": "function"
    },
    {
      "inputs": [
        {
          "internalType": "address",
          "name": "_newEmployer",
          "type": "address"
        }
      ],
      "name": "setEmployer",
      "outputs": [],
      "stateMutability": "nonpayable",
      "type": "function"
    },
    {
      "inputs": [
        {
          "internalType": "address",
          "name": "_taxVault",
          "type": "address"
        }
      ],
      "name": "setTaxVault",
      "outputs": [],
      "stateMutability": "nonpayable",
      "type": "function"
    },
    {
      "inputs": [
        {
          "internalType": "address",
          "name": "_employee",
          "type": "address"
        },
        {
          "internalType": "uint256",
          "name": "_ratePerSecond",
          "type": "uint256"
        }
      ],
      "name": "startStream",
      "outputs": [],
      "stateMutability": "nonpayable",
      "type": "function"
    },
    {
      "inputs": [
        {
          "internalType": "address",
          "name": "_employee",
          "type": "address"
        }
      ],
      "name": "stopStream",
      "outputs": [],
      "stateMutability": "nonpayable",
      "type": "function"
    },
    {
      "inputs": [
        {
          "internalType": "address",
          "name": "",
          "type": "address"
        }
      ],
      "name": "streams",
      "outputs": [
        {
          "internalType": "uint256",
          "name": "ratePerSecond",
          "type": "uint256"
        },
        {
          "internalType": "uint256",
          "name": "lastWithdrawTime",
          "type": "uint256"
        },
        {
          "internalType": "uint256",
          "name": "accruedBalance",
          "type": "uint256"
        },
        {
          "internalType": "bool",
          "name": "isActive",
          "type": "bool"
        }
      ],
      "stateMutability": "view",
      "type": "function"
    },
    {
      "inputs": [],
      "name": "taxVault",
      "outputs": [
        {
          "internalType": "address",
          "name": "",
          "type": "address"
        }
      ],
      "stateMutability": "view",
      "type": "function"
    },
    {
      "inputs": [],
      "name": "withdraw",
      "outputs": [],
      "stateMutability": "nonpayable",
      "type": "function"
    },
    {
      "stateMutability": "payable",
      "type": "receive"
    }
  ],
  "bytecode": "0x608060405234801561001057600080fd5b50604051610fd3380380610fd383398101604081905261002f91610099565b60008054336001600160a01b031991821681179092556001805490911690911790556001600160a01b038116156100665780610073565b6001546001600160a01b03165b600280546001600160a01b0319166001600160a01b0392909216919091179055506100c9565b6000602082840312156100ab57600080fd5b81516001600160a01b03811681146100c257600080fd5b9392505050565b610efb806100d86000396000f3fe6080604052600436106100e15760003560e01c80639b5655dc1161007f578063da17c51311610059578063da17c513146102b3578063db2e21bc146102d3578063e2ad37b0146102e8578063f851a4401461030857600080fd5b80639b5655dc14610248578063ae200e791461025b578063cf7966441461029357600080fd5b806383699275116100bb578063836992751461017757806383f170be146101e557806389885049146102085780638f8350c41461022857600080fd5b80630bf2b21a146101205780633ccfd60b146101425780636b23a1551461015757600080fd5b3661011b576040513481527fef7aff843f3420b45d9d058ff62be0d87a95132dea4a67b18925283ba05647dc9060200160405180910390a1005b600080fd5b34801561012c57600080fd5b5061014061013b366004610d99565b610328565b005b34801561014e57600080fd5b506101406104b4565b34801561016357600080fd5b50610140610172366004610d99565b610712565b34801561018357600080fd5b506101be610192366004610d99565b600360208190526000918252604090912080546001820154600283015492909301549092919060ff1684565b60408051948552602085019390935291830152151560608201526080015b60405180910390f35b3480156101f157600080fd5b506101fa600a81565b6040519081526020016101dc565b34801561021457600080fd5b506101fa610223366004610d99565b6107bb565b34801561023457600080fd5b50610140610243366004610d99565b610845565b34801561025457600080fd5b50476101fa565b34801561026757600080fd5b5060015461027b906001600160a01b031681565b6040516001600160a01b0390911681526020016101dc565b34801561029f57600080fd5b506101406102ae366004610d99565b610933565b3480156102bf57600080fd5b506101406102ce366004610db4565b610a94565b3480156102df57600080fd5b50610140610c02565b3480156102f457600080fd5b5060025461027b906001600160a01b031681565b34801561031457600080fd5b5060005461027b906001600160a01b031681565b6000546001600160a01b031633148061034b57506001546001600160a01b031633145b6103705760405162461bcd60e51b815260040161036790610dde565b60405180910390fd5b6001600160a01b0381166103965760405162461bcd60e51b815260040161036790610e20565b6001600160a01b03811660009081526003602081905260409091209081015460ff16156103f85760008160010154426103cf9190610e60565b82549091506103de9082610e79565b8260020160008282546103f19190610e90565b9091555050505b805415158061040b575060008160020154115b6104575760405162461bcd60e51b815260206004820152601860248201527f53747265616d206973206e6f7420636f6e6669677572656400000000000000006044820152606401610367565b60038101805460ff191690556000815542600182015560028101546040519081526001600160a01b038316907faa0e98a1d5c3185ee3383cda00889be32c0dab109b50a7f8d91aa77b3c749aae9060200160405180910390a25050565b60006104bf336107bb565b9050600081116105075760405162461bcd60e51b8152602060048201526013602482015272139bc8199d5b991cc819585c9b9959081e595d606a1b6044820152606401610367565b804710156105575760405162461bcd60e51b815260206004820152601b60248201527f547265617375727920656d707479202d20436f6e7461637420485200000000006044820152606401610367565b33600090815260036020526040812042600182015560028101829055906064610581600a85610e79565b61058b9190610ea3565b905060006105998285610e60565b6002546040519192506000916001600160a01b039091169084908381818185875af1925050503d80600081146105eb576040519150601f19603f3d011682016040523d82523d6000602084013e6105f0565b606091505b50509050806106375760405162461bcd60e51b815260206004820152601360248201527215185e081d1c985b9cd9995c8819985a5b1959606a1b6044820152606401610367565b604051600090339084908381818185875af1925050503d8060008114610679576040519150601f19603f3d011682016040523d82523d6000602084013e61067e565b606091505b50509050806106cf5760405162461bcd60e51b815260206004820152601860248201527f456d706c6f796565207472616e73666572206661696c656400000000000000006044820152606401610367565b604080518481526020810186905233917fdf273cb619d95419a9cd0ec88123a0538c85064229baa6363788f743fff90deb910160405180910390a2505050505050565b6000546001600160a01b031633148061073557506001546001600160a01b031633145b6107515760405162461bcd60e51b815260040161036790610dde565b6001600160a01b0381166107995760405162461bcd60e51b815260206004820152600f60248201526e496e76616c6964206164647265737360881b6044820152606401610367565b600280546001600160a01b0319166001600160a01b0392909216919091179055565b6001600160a01b038116600090815260036020818152604080842081516080810183528154815260018201549381019390935260028101549183018290529092015460ff16158015606083015290919061083e5760008260200151426108219190610e60565b83519091506108309082610e79565b61083a9083610e90565b9150505b9392505050565b6000546001600160a01b031633146108985760405162461bcd60e51b81526020600482015260166024820152754f6e6c792061646d696e2063616e20646f207468697360501b6044820152606401610367565b6001600160a01b0381166108e15760405162461bcd60e51b815260206004820152601060248201526f24b73b30b634b21032b6b83637bcb2b960811b6044820152606401610367565b600180546001600160a01b038381166001600160a01b0319831681179093556040519116919082907f1e1587571e802f8de613e8a6e104b93fa38d7e84167560b8a10fbd8836ebc82390600090a35050565b6000546001600160a01b031633148061095657506001546001600160a01b031633145b6109725760405162461bcd60e51b815260040161036790610dde565b6001600160a01b0381166109985760405162461bcd60e51b815260040161036790610e20565b6001600160a01b03811660009081526003602081905260409091209081015460ff16610a065760405162461bcd60e51b815260206004820152601a60248201527f53747265616d20697320616c726561647920696e6163746976650000000000006044820152606401610367565b6000816001015442610a189190610e60565b8254909150610a279082610e79565b826002016000828254610a3a9190610e90565b909155505060038201805460ff1916905560028201546040519081526001600160a01b038416907f193dce5bd695f69954512edb54dccffc86c8475031711fedc33d41adcc2e5218906020015b60405180910390a2505050565b6000546001600160a01b0316331480610ab757506001546001600160a01b031633145b610ad35760405162461bcd60e51b815260040161036790610dde565b6001600160a01b038216610af95760405162461bcd60e51b815260040161036790610e20565b60008111610b495760405162461bcd60e51b815260206004820152601b60248201527f52617465206d7573742062652067726561746572207468616e203000000000006044820152606401610367565b6001600160a01b03821660009081526003602081905260409091209081015460ff1615610bab576000816001015442610b829190610e60565b8254909150610b919082610e79565b826002016000828254610ba49190610e90565b9091555050505b8181554260018083019190915560038201805460ff191690911790556040518281526001600160a01b038416907f3869caee07d456958a31c5ac828d9dfc10dc42094e29536a52ddd10cbd42041390602001610a87565b6000546001600160a01b03163314610c555760405162461bcd60e51b81526020600482015260166024820152754f6e6c792061646d696e2063616e20646f207468697360501b6044820152606401610367565b4780610ca35760405162461bcd60e51b815260206004820152601960248201527f547265617375727920697320616c726561647920656d707479000000000000006044820152606401610367565b600080546040516001600160a01b039091169083908381818185875af1925050503d8060008114610cf0576040519150601f19603f3d011682016040523d82523d6000602084013e610cf5565b606091505b5050905080610d465760405162461bcd60e51b815260206004820152601b60248201527f456d657267656e6379207769746864726177616c206661696c656400000000006044820152606401610367565b6040518281527fcbba13897c2ac3f7fdb11e857b1a5a5c47f51e3fbeffa74d430f2b06177b45c09060200160405180910390a15050565b80356001600160a01b0381168114610d9457600080fd5b919050565b600060208284031215610dab57600080fd5b61083e82610d7d565b60008060408385031215610dc757600080fd5b610dd083610d7d565b946020939093013593505050565b60208082526022908201527f4f6e6c792061646d696e206f7220656d706c6f7965722063616e20646f207468604082015261697360f01b606082015260800190565b60208082526010908201526f496e76616c696420656d706c6f79656560801b604082015260600190565b634e487b7160e01b600052601160045260246000fd5b81810381811115610e7357610e73610e4a565b92915050565b8082028115828204841417610e7357610e73610e4a565b80820180821115610e7357610e73610e4a565b600082610ec057634e487b7160e01b600052601260045260246000fd5b50049056fea2646970667358221220f3a37d0b7bbd91237ca5e09a8af7c4cbe2bb93cb2c813b1ae56699c3a9ef4a5864736f6c63430008140033",
  "linkReferences": {},
  "deployedLinkReferences": {}
}